:100000000C9472000C9486000C9486000C9486006C
:100010000C9486000C9486000C9486000C94860048
:100020000C9486000C9486000C9486000C94860038
:100030000C9486000C9486000C9486000C94860028
:100040000C9486000C9486000C9486000C94860018
:100050000C9486000C9486000C9486000C94860008
:100060000C9486000C9486000C9486000C948600F8
:100070000C9486000C9486000C9486000C948600E8
:100080000C9486000C9486000C9486000C948600D8
:100090000C9486000C9486000C9486000C948800C6
:1000A0000C9486000C9486000C9486000C948600B8
:1000B0000C9486000C9486000C9486000C948600A8
:1000C0000C9486000C9486000C9486000C94860098
:1000D0000C9486000C9486000C9486000C94860088
:1000E0000C94860011241FBECFEFD1E2DEBFCDBF3E
:1000F00000E00CBF22E0A0E0B2E001C01D92A331FD
:10010000B207E1F70E94DA070C94140B0C9400007C
:100110001F920F920FB60F9211240BB60F928F936E
:10012000AF93BF93EF93FF938091B900887F80389E
:1001300081F0803A89F1803679F1FF91EF91BF919A
:10014000AF918F910F900BBE0F900FBE0F901F902D
:100150001895E0910202F0E08091BB00ED5FFD4F49
:100160008083809102028F5F80930202809102025D
:10017000883090F01092020280910002811109C033
:1001800088E0E3E0F2E0ABE0B2E001900D928A9506
:10019000E1F781E08093010285EC8093BC00CDCF34
:1001A000CF93C82F0E94B00785E00E94AB078FE075
:1001B0000E94AB0780EE0E94AB078C2F8295880FC0
:1001C000807E0E94AB07CF910C94B207CF93C82FCB
:1001D0000E94B00783E00E94AB078C2F0E94AB0700
:1001E00080E00E94AB070E94B2078EB5CF910895C0
:1001F000CF93DF93D82FC62F0E94B00782E00E94D2
:10020000AB078D2F0E94AB078C2F0E94AB07DF91AD
:10021000CF910C94B20784E00E94D0008EE00E943F
:10022000E60087FFFBCF60E08AE20E94F80061E908
:1002300089E20E94F80061E088E20E94F8000895D7
:10024000CF93C62F0E94E60091E08C1390E0892F97
:10025000CF9108958AE20E94E600882319F090E089
:10026000892F089589E20E94E6008139C1F788E26A
:100270000E94E60091E0813091F7F2CFEF92FF9279
:100280000F931F93CF93DF93C82F7B010E94B0077A
:100290008C2F80640E94AB07F70180819181A2813D
:1002A000B38123E0B695A795979587952A95D1F7C1
:1002B0000E94AB07F70180818295880F807E0E94A3
:1002C000AB0780E00E94AB0780E00E94AB07F7011C
:1002D0008481182F16951F7080FD1CC0812F0E94ED
:1002E000AB07112379F0E70125961150012F10E09B
:1002F0000A5F1F4F0E0D1F1D89910E94AB07C0178B
:10030000D107D1F7DF91CF911F910F91FF90EF901F
:100310000C94B207812F80640E94AB07DF91CF91CC
:100320001F910F91FF90EF900C94B207CF93882309
:1003300051F0C82FC0680E94B0078C2F0E94AB07F5
:10034000CF910C94B207C1E80E94B0078C2F0E9495
:10035000AB07CF910C94B207FF920F931F93CF93EB
:10036000DF93C82FF62E072F142F0E94B00783E0CB
:100370000E94AB078C2F0E94AB07112371F0CF2D89
:10038000D02FCE01810F911D8C0180E00E94AB0720
:100390008EB58993C017D107C1F7DF91CF911F9117
:1003A0000F91FF900C94B2070F931F93CF93DF939D
:1003B00000D01F921F92CDB7DEB78B01882359F171
:1003C000813009F447C0898190E0880F991F880F18
:1003D000991F880F991F2A81229526952770822BB5
:1003E000092E000CAA0BBB0BF80180839183A2831A
:1003F000B3838D818F70982F990F8481817E892B93
:1004000084830F900F900F900F900F90DF91CF91FA
:100410001F910F91089545E0BE016F5F7F4F81E608
:100420000E94AC0148E0B8016B5F7F4F86E60E94F6
:10043000AC010E94B00785E00E94AB078CE20E94ED
:10044000AB0781E00E94AB0780E00E94AB070E94EF
:10045000B207B9CF45E0BE016F5F7F4F81E70E94D1
:10046000AC0148E0B8016B5F7F4F86E70E94AC01AA
:100470000E94B00785E00E94AB078CE20E94AB07A8
:1004800082E00E94AB0780E00E94AB070E94B207A7
:100490009ACFCF93DF93CDB7DEB72D970FB6F894F1
:1004A000DEBF0FBECDBFFC0180819181A0E0B0E036
:1004B00089839A83AB83BC838D81817E80618E7FAB
:1004C0008D838AE98E83BE016F5F7F4F80E00E943B
:1004D0003E0180E00E9496018CE98E83BE016F5F31
:1004E0007F4F80E00E943E0180E00E9496012D96A1
:1004F0000FB6F894DEBF0FBECDBFDF91CF91089548
:10050000CF93DF93CDB7DEB72D970FB6F894DEBF4C
:100510000FBECDBFFC0180819181A0E0B0E0898356
:100520009A83AB83BC838D81817E80618E7F8D8336
:1005300082E98E83BE016F5F7F4F80E00E943E01A3
:1005400080E00E9496012D960FB6F894DEBF0FBE94
:10055000CDBFDF91CF9108952F923F924F925F923E
:100560006F927F928F929F92AF92BF92CF92DF92C3
:10057000EF92FF920F931F93CF93DF93FC01EB0158
:1005800080819181A0E0B0E0488159816A817B81BE
:10059000481759076A077B0799F0DF91CF911F91A0
:1005A0000F91FF90EF90DF90CF90BF90AF909F9012
:1005B0008F907F906F905F904F903F902F90089515
:1005C0008D818A3909F476C08C3909F458C0823992
:1005D00021F7DF01AC5BBF4F8C918E809F80A88498
:1005E000B9842A8530E040E050E060E070E0882384
:1005F00009F469C080E090E000E20E94C908762E0C
:10060000172FB82FA92F482C422A592C532A6A2C6D
:10061000642ADB2CD52A2B8530E040E050E060E0F6
:1006200070E080E090E008E20E94C908A42CA22AB1
:10063000B52CB32AC62CC42AD52AE72CE62AF12EDB
:10064000F72AB82BA92B2C8530E040E050E060E081
:1006500070E080E090E000E30E94C9082A293B296D
:100660004C295D296E297F298B2B9A2B258736876C
:100670004787508B618B728B838B948B8ECF8E814F
:1006800083A78F819885092E000CAA0BBB0B87A727
:1006900090ABA1ABB2AB89859A85092E000CAA0B51
:1006A000BB0B83AB94ABA5ABB6AB8B859C8594831E
:1006B000838373CF8E8183A78885998595A784A727
:1006C0008C8586A76ACF90E000E20E94C908562E6A
:1006D000672E782E192F282C222A392C332A4A2CBF
:1006E000442ACB2CC52A2B8530E040E050E060E066
:1006F00070E080E090E008E20E94C908922C922A03
:10070000A32CA32AB42CB42AC52AD52CD62AE62C8D
:10071000E72AF72CF82A192B2C8530E040E050E02E
:1007200060E070E080E090E000E30E94C9082929C1
:100730003A294B295C296D297E298F29912B258BFC
:10074000368B478B508F618F728F838F948F81E0B0
:100750008C9323CFCF93DF93CDB7DEB761970FB6DE
:10076000F894DEBF0FBECDBFFC019A01AB0123ABF5
:1007700034AB65AB56ABA4E6B0E00E944D086E8783
:100780007F87888B998B80819181A0E0B0E08983FD
:100790009A83AB83BC838D81817E80618E7F8D83C4
:1007A00082EA8E836A877B8788898C8789898D878F
:1007B000BE016F5F7F4F80E00E943E0180E00E949B
:1007C000960161960FB6F894DEBF0FBECDBFDF91E4
:1007D000CF9108958F929F92AF92BF92CF92DF9266
:1007E000EF92FF920F931F93CF93DF93EC01FC01E5
:1007F000EC5BFF4F10824AAD5BAD6CAD7DAD0E94EE
:10080000AA03882483944AE4942E03C0CE010E9454
:1008100049026FA578A989A99AA91F921F928F9260
:100820009F922FEDA22EBB24BA94CB2CDB2CE12C73
:1008300018E0F12E00E010E020E038EF4FEF5FEF1E
:100840000E945A060F900F900F900F9016161706E1
:1008500018061906DCF640E050E0BA01CE010E940D
:10086000AA03CE01DF91CF911F910F91FF90EF90DE
:10087000DF90CF90BF90AF909F908F900C948002AC
:1008800070E0FC01EE5BFF4F008002C0759567953C
:100890000A94E2F760FD0DC032962081211109C053
:1008A00036974081518162817381452B462B472BBE
:1008B00009F0089541E050E060E070E0408351832A
:1008C000628373830C94EA032F923F924F925F925C
:1008D0006F927F928F929F92AF92BF92CF92DF9250
:1008E000EF92FF920F931F93CF93DF93CDB7DEB7B5
:1008F000A5970FB6F894DEBF0FBECDBF1C017B8B52
:100900006A8B29013A01DC015596BC91BC8BFC0134
:10091000F689FD8BDC015796BC91BE8BFC01F08DF6
:10092000FF8BDC015996BC91B88FFC01F28DF98FD9
:10093000DC015B96BC91BA8FFC01F48DFB8F8C8837
:100940009D88AE88BF88C88CD98CEB2EFF2E940171
:10095000A501B601C701A0E00E94FD08C1F377FC24
:1009600009C1F101F58DFC8FD1015E96BC91BD8F5F
:10097000F101878C90A0F1A1D1019296EC91929710
:100980009396BC91BAA3D1019496BC91BBA3BC8DA4
:100990008D8D8E8F8CA29DA2EF2EFE2E0AA11BA103
:1009A0002B2F382FA4016F2F7E2FC801A0E00E94AB
:1009B000FD080CF4D1C09201A30163015201DD0CCA
:1009C000AA08BA2C65016A2D7A2D8A2D9A2DAB2E94
:1009D000BE8CCCA0DDA00E94F40811F00CF0C5C0C4
:1009E0002A893B8944E6429FC001439F900D112410
:1009F0009B8B8A8BD10119964D925D926D927C9260
:100A00001C972C8D3D8DA4016F2F7E2F8AA19BA159
:100A1000A0E00E94FD0809F00CF4CBC0A8E5B2E00C
:100A2000A30192010E944D084C885D886E887F88E2
:100A3000460E571E681E791E4E865F86688A798A22
:100A4000D301C201BB0F880B982FDC018E8F9F8FC3
:100A5000A8A3B9A32C8D3D8DA4016F2F7E2F8AA151
:100A60009BA103E00E94C9082C8F3D8F4A01B62F3D
:100A7000A72FF82FE92F02E00E94C90859016A0147
:100A80007B018C012C8D3D8DA4016B2F7A2F8F2F34
:100A90009E2F0E94E20859016A017B01E82F192F5D
:100AA00004E00E94C9080E2F0E94EB08AC88BD88A4
:100AB000CE88DF88E88CF98C0A8D1B8D0E94E208B5
:100AC00059016A017B018C019201A3016E8D762F81
:100AD000862F962F0E94F40809F02CF5D1018D91F4
:100AE0009C91A0E0B0E089839A83AB83BC838D8125
:100AF000817E80618E7F8D8384EA8E838A89888758
:100B00008B8989878E858A878F858B8788898C8753
:100B100089898D87BE016F5F7F4F80E00E943E0113
:100B200080E00E949601A5960FB6F894DEBF0FBE36
:100B3000CDBFDF91CF911F910F91FF90EF90DF908C
:100B4000CF90BF90AF909F908F907F906F905F906D
:100B50004F903F902F9008950E94B908B22F3E8F7A
:100B60004CA35DA37B018C0126CF4B2E5B2C6C2C00
:100B70007D2C36CFD1015D96BC91BC8FF101F68DF5
:100B8000FD8FD1015F968C905F9790969C90909787
:100B90009196FC9191979296EC9192979396BC9135
:100BA000BAA3D1019496BC91BBA3412C512C320124
:100BB00017CF2C8D3D8DA4016F2F7E2F8AA19BA175
:100BC000A0E00E94FD0809F4AECFA8EABDEFA301A2
:100BD00092010E945B084C885D886E887F88460E73
:100BE000571E681E791E4E865F86688A798AD301F1
:100BF000C201BB0F880B982FDC018E8F9F8FA8A39B
:100C0000B9A338EAA32E4DEFB42ECC24CA94DD2428
:100C1000DA94EE24EA94FF24FA940FEF1FEF2C8D60
:100C20003D8DA4016F2F7E2F8AA19BA10E94600899
:100C30003DCF8093BA001092B9001092B80085E4BD
:100C40008093BC0081E0089584ED8093BC00809186
:100C5000BC0087FDFCCF84E48093BC0008958093A2
:100C6000BB0084EC8093BC008091BC0087FFFCCF6C
:100C7000089584EC8093BC008091BC0087FFFCCF7A
:100C80008091BB00089584E88093BC008091BC00F3
:100C900087FFFCCF8091BB000895FC019091BC00C0
:100CA00097FD02C080E008959091B900987F9083ED
:100CB00081E008954F925F926F927F92AF92BF92C0
:100CC000CF92DF92EF92FF920F931F93CF93DF9318
:100CD000CDB7DEB729013A019B01AC0124193509D2
:100CE000460957098A899B89AC89BD89BC01CD0118
:100CF0006A197B098C099D090E941E08A8019701A9
:100D000024193509460957090E942E08CA01B9015C
:100D10006A0D7B1D8C1D9D1DDF91CF911F910F9141
:100D2000FF90EF90DF90CF90BF90AF907F906F904B
:100D30005F904F9008954F925F926F927F92AF9223
:100D4000BF92CF92DF92EF92FF920F931F93CF93B8
:100D5000DF93CDB7DEB728970FB6F894DEBF0FBE8E
:100D6000CDBF29013A01ED82FE820F8318870E94D0
:100D70003A0969837A838B839C83A60195016A8DE6
:100D80007B8D8C8D9D8D0E943A099B01AC01698100
:100D90007A818B819C810E94A70A69837A838B83E5
:100DA0009C83A3019201C801B7010E943A099B01EB
:100DB000AC0169817A818B819C810E94A709A6017F
:100DC00095010E943B0928960FB6F894DEBF0FBE2E
:100DD000CDBFDF91CF911F910F91FF90EF90DF90EA
:100DE000CF90BF90AF907F906F905F904F9008959D
:100DF000A0E0B0E09C01AD01205131404109510912
:100E0000A4E6B0E00E944D0820EA35E040E050E062
:100E10000E942E08C9010895BC0180E090E00E9464
:100E2000190A20E030E048E853E40E943A0920E043
:100E300030E044EB54E40E94A70920E030E040E0B9
:100E40005FE30E943A0908951092B9008CE0809304
:100E5000B800089594EA9093BC009091BC0097FF6D
:100E6000FCCF9091B900987F983021F0903111F02B
:100E700081E008958093BB0084E88093BC0080915A
:100E8000BC0087FFFCCF8091B900887F883111F0CA
:100E9000803471F780E0089524EA34E844E920932F
:100EA000BC009091BC0097FFFCCF9091B900987F57
:100EB000983011F0903199F78093BB003093BC00CB
:100EC0009091BC0097FFFCCF9091B900987F903231
:100ED00019F0983509F008954093BC009091BC003A
:100EE00094FDFCCFDCCF0C942A0784E98093BC00EE
:100EF0008091BC0084FDFCCF08958093BB0084E802
:100F00008093BC008091BC0087FFFCCF9091B9001A
:100F1000987F81E0983209F0089580E0089584EC8C
:100F20008093BC008091BC0087FFFCCF8091BB0008
:100F3000089584E88093BC008091BC0087FFFCCFBB
:100F40008091BB00089584B1876084B98CB58165B8
:100F50008CBD289A08958EBD0DB407FEFDCF08956F
:100F600028980895289A0895E1ECF0E08081886936
:100F70008083E2ECF0E080818660808383E380936D
:100F8000C4001092C50008959091C00095FFFCCF59
:100F90008093C6000895FC012081222351F03196F0
:100FA0009091C00095FFFCCF2093C60021912111A4
:100FB000F7CF089580E88AB98093040180910501F4
:100FC0008F778093050182EA8093BA0085EC809345
:100FD000BC00789491E0809101028823E1F3909322
:100FE000000280910B028131B1F7809112028131B0
:100FF00091F780910C028111EECF80910D02811149
:10100000EACF80910E028111E6CF80910F0281110B
:10101000E2CF809110028111DECF80911102811107
:10102000DACF8BB180588BB98091050180588093BD
:1010300005011092010210920002CDCFDB018F93C7
:101040009F930E944D08BF91AF91A29F800D911D6B
:10105000A39F900DB29F900D11240895052E97FB2C
:101060001EF400940E94450857FD07D00E9409090C
:1010700007FC03D04EF40C944508509540953095EC
:1010800021953F4F4F4F5F4F0895909580957095F4
:1010900061957F4F8F4F9F4F08950E942B09A59F09
:1010A000900DB49F900DA49F800D911D1124089563
:1010B000B7FF0C944D080E944D08821B930B0895B6
:1010C000DF93CF931F930F939A9DF02D219FF00DE7
:1010D0008B9DF00D8A9DE02DF10D039FF00D029F79
:1010E000E00DF11D4E9DE00DF11D5E9DF00D4F9D3B
:1010F000F00D7F936F93BF92AF925F934F93D501A3
:101100000E942B098B01AC01D7010E942B09EB0136
:10111000E80FF91FD6010E94B0082F913F91D60128
:101120000E942B09C60FD71FE81FF91FAF91BF916F
:101130000E94B0082F913F910E942B09C60FD71F24
:10114000E81FF91FD6010E942B09E60FF71F98012F
:10115000BE01CF0111240F911F91CF91DF9108950E
:101160000E942B09460F571FC81FD91F08F431963C
:10117000089560957095809590953095409550951F
:1011800021953F4F4F4F5F4F6F4F7F4F8F4F9F4F77
:1011900008950F93083090F0982F872F762F652FA2
:1011A000542F432F322F22270850F4CF220F331F02
:1011B000441F551F661F771F881F991F0A95B2F796
:1011C0000F9108952A0D3B1D4C1D5D1D6E1D7F1D49
:1011D000801F911F08952A193B094C095D096E096A
:1011E0007F09800B910B08952A153B054C055D0581
:1011F0006E057F058007910708950024A7FD0094E0
:101200002A173005400550056005700580059005DA
:101210000895A1E21A2EAA1BBB1BFD010DC0AA1F37
:10122000BB1FEE1FFF1FA217B307E407F50720F04F
:10123000A21BB30BE40BF50B661F771F881F991FCA
:101240001A9469F760957095809590959B01AC0113
:10125000BD01CF010895A29FB001B39FC001A39F1C
:10126000700D811D1124911DB29F700D811D1124DF
:10127000911D08955058BB27AA270E9452090C942B
:101280006D0A0E945F0A38F00E94660A20F039F465
:101290009F3F19F426F40C945C0A0EF4E095E7FBEA
:1012A0000C94560AE92F0E947E0A58F3BA17620777
:1012B00073078407950720F079F4A6F50C94A00A2B
:1012C0000EF4E0950B2EBA2FA02D0B01B901900161
:1012D0000C01CA01A0011124FF27591B99F0593FA5
:1012E00050F4503E68F11A16F040A22F232F342FED
:1012F0004427585FF3CF469537952795A795F0403B
:101300005395C9F77EF41F16BA0B620B730B840B4F
:10131000BAF09150A1F0FF0FBB1F661F771F881F07
:10132000C2F70EC0BA0F621F731F841F48F487955F
:1013300077956795B795F7959E3F08F0B0CF939551
:10134000880F08F09927EE0F9795879508950E94CA
:10135000BB090C946D0A0E94660A58F00E945F0A4D
:1013600040F029F45F3F29F00C94560A51110C9477
:10137000A10A0C945C0A0E947E0A68F39923B1F3D7
:10138000552391F3951B550BBB27AA2762177307AB
:10139000840738F09F5F5F4F220F331F441FAA1F3F
:1013A000A9F335D00E2E3AF0E0E832D091505040FB
:1013B000E695001CCAF72BD0FE2F29D0660F771FA9
:1013C000881FBB1F261737074807AB07B0E809F08F
:1013D000BB0B802DBF01FF2793585F4F3AF09E3F14
:1013E000510578F00C94560A0C94A10A5F3FE4F37F
:1013F000983ED4F3869577956795B795F7959F5F57
:10140000C9F7880F911D9695879597F90895E1E0A2
:10141000660F771F881FBB1F621773078407BA0701
:1014200020F0621B730B840BBA0BEE1F88F7E0955C
:101430000895E89409C097FB3EF4909580957095C7
:1014400061957F4F8F4F9F4F9923A9F0F92F96E910
:10145000BB279395F695879577956795B795F11185
:10146000F8CFFAF4BB0F11F460FF1BC06F5F7F4F22
:101470008F4F9F4F16C0882311F096E911C0772334
:1014800021F09EE8872F762F05C0662371F096E83D
:10149000862F70E060E02AF09A95660F771F881F0C
:1014A000DAF7880F9695879597F9089597F99F67CA
:1014B00080E870E060E008959FEF80EC08950024DC
:1014C0000A941616170618060906089500240A94A9
:1014D00012161306140605060895092E0394000C2F
:1014E00011F4882352F0BB0F40F4BF2B11F460FFBE
:1014F00004C06F5F7F4F8F4F9F4F089557FD9058E7
:10150000440F551F59F05F3F71F04795880F97FBC7
:10151000991F61F09F3F79F0879508951216130681
:101520001406551FF2CF4695F1DF08C016161706B0
:101530001806991FF1CF86957105610508940895E5
:10154000E894BB2766277727CB0197F908950E9477
:10155000BA0A0C946D0A0E945F0A38F00E94660A6B
:1015600020F0952311F00C94560A0C945C0A112477
:101570000C94A10A0E947E0A70F3959FC1F3950F07
:1015800050E0551F629FF001729FBB27F00DB11D07
:10159000639FAA27F00DB11DAA1F649F6627B00D97
:1015A000A11D661F829F2227B00DA11D621F739F80
:1015B000B00DA11D621F839FA00D611D221F749F8E
:1015C0003327A00D611D231F849F600D211D822FD5
:1015D000762F6A2F11249F5750409AF0F1F08823FC
:1015E0004AF0EE0FFF1FBB1F661F771F881F915029
:1015F0005040A9F79E3F510580F00C94560A0C9478
:10160000A10A5F3FE4F3983ED4F3869577956795FA
:10161000B795F795E7959F5FC1F7FE2B880F911D52
:0C1620009695879597F90895F894FFCFF0
:00000001FF
