:100000000C9472000C9486000C9486000C9486006C
:100010000C9486000C9486000C9486000C94860048
:100020000C9486000C9486000C9486000C94860038
:100030000C9486000C9486000C9486000C94860028
:100040000C9486000C9486000C9486000C94860018
:100050000C9486000C9486000C9486000C94860008
:100060000C9486000C9486000C9486000C948600F8
:100070000C9486000C9486000C9486000C948600E8
:100080000C9486000C9486000C9486000C948600D8
:100090000C9486000C9486000C9486000C948600C8
:1000A0000C9486000C9486000C9486000C948600B8
:1000B0000C9486000C9486000C9486000C948600A8
:1000C0000C9486000C9486000C9486000C94860098
:1000D0000C9486000C9486000C9486000C94860088
:1000E0000C94860011241FBECFEFD1E2DEBFCDBF3E
:1000F00000E00CBF22E0A0E0B2E001C01D92A830F9
:10010000B207E1F70E9445040C941B070C94000011
:1001100090917C00987F8770892B80937C008091E0
:100120007A00806480937A0080917A0086FDFCCF0B
:1001300080917800909179000895AB01BC01F8940A
:1001400087E19EEF0EC024E02A95F1F7440F551F7A
:10015000661F771F709823E02A95F1F70000815001
:1001600088F0709A67FDEFCF22E02A95F1F79EB9EB
:10017000440F551F661F771F24E02A95F1F70000F2
:10018000815078F778940895719885B18F7385B907
:100190002FEF81EE94E0215080409040E1F700C0C5
:1001A0000000719A85B1806C85B908959B01220F7A
:1001B000331F620F731F689A2EB12E7F3EB13160DC
:1001C0004FB7F89461157105B1F0FC01680F791F04
:1001D000819198E03EB9000007F487FF2EB9880F9F
:1001E000000007F407F407F42EB907F49A9591F785
:1001F000E617F70769F74FBF8FEA94E00197F1F729
:1002000000C0000008959B01220F331F620F731F6F
:100210002DB1242B2DB92EB1342F309523233EB18F
:10022000432B3FB7F89461157105B1F0FC01680FDD
:10023000791F819198E04EB9000007F487FF2EB92D
:10024000880F000007F407F407F42EB907F49A9515
:1002500091F7E617F70769F73FBF8FEA94E0019738
:10026000F1F700C000000895660F771F660F771F33
:10027000689A2EB12E7F3EB131604FB7F894611568
:100280007105B1F0FC01680F791F819198E03EB9CA
:10029000000007F487FF2EB9880F000007F407F469
:1002A00007F42EB907F49A9591F7E617F70769F75F
:1002B0004FBF8FEA94E00197F1F700C00000089566
:1002C000689A2EB12E7F3EB131604FB7F894611518
:1002D0007105B1F0FC01680F791F819198E03EB97A
:1002E000000007F487FF2EB9880F000007F407F419
:1002F00007F42EB907F49A9591F7E617F70769F70F
:100300004FBF08952DB1242B2DB92EB1342F309528
:1003100023233EB1432B3FB7F89461157105B1F02B
:10032000FC01680F791F819198E04EB9000007F435
:1003300087FF2EB9880F000007F407F407F42EB9E1
:1003400007F49A9591F7E617F70769F73FBF089505
:10035000CF93C82F0E941B0485E00E9416048FE0F3
:100360000E94160480EE0E9416048C2F8295880F3E
:10037000807E0E941604CF910C941D04CF93C82F49
:100380000E941B0483E00E9416048C2F0E94160416
:1003900080E00E9416040E941D048EB5CF9108953E
:1003A000CF93DF93D82FC62F0E941B0482E00E94B8
:1003B00016048D2F0E9416048C2F0E941604DF91C4
:1003C000CF910C941D0484E00E94A8018EE00E944D
:1003D000BE0187FFFBCF60E08AE20E94D00161E9A5
:1003E00089E20E94D00161E088E20E94D001089574
:1003F000CF93C62F0E94BE0191E08C1390E0892F0D
:10040000CF9108958AE20E94BE01882319F090E0FE
:10041000892F089589E20E94BE018139C1F788E2DF
:100420000E94BE0191E0813091F7F2CFEF92FF92EE
:100430000F931F93CF93DF93C82F7B010E941B0460
:100440008C2F80640E941604F70180819181A28123
:10045000B38123E0B695A795979587952A95D1F70F
:100460000E941604F70180818295880F807E0E9489
:10047000160480E00E94160480E00E941604F70132
:100480008481182F16951F7080FD1CC0812F0E943B
:100490001604112379F0E70125961150012F10E081
:1004A0000A5F1F4F0E0D1F1D89910E941604C01771
:1004B000D107D1F7DF91CF911F910F91FF90EF906E
:1004C0000C941D04812F80640E941604DF91CF914B
:1004D0001F910F91FF90EF900C941D04CF938823F0
:1004E00051F0C82FC0680E941B048C2F0E94160474
:1004F000CF910C941D04C1E80E941B048C2F0E9414
:100500001604CF910C941D048093BA001092B90088
:100510001092B80085E48093BC0081E0089584EDDA
:100520008093BC008091BC0087FDFCCF84E4809365
:10053000BC0008958093BB0084EC8093BC00809144
:10054000BC0087FFFCCF089584EC8093BC008091B1
:10055000BC0087FFFCCF8091BB00089584E88093A6
:10056000BC008091BC0087FFFCCF8091BB00089548
:10057000FC019091BC0097FD02C080E0089590912D
:10058000B900987F908381E008954F925F926F92B7
:100590007F92AF92BF92CF92DF92EF92FF920F9332
:1005A0001F93CF93DF93CDB7DEB729013A019B01AB
:1005B000AC0124193509460957098A899B89AC89F8
:1005C000BD89BC01CD016A197B098C099D090E9476
:1005D000D604A801970124193509460957090E9434
:1005E000E604CA01B9016A0D7B1D8C1D9D1DDF91BA
:1005F000CF911F910F91FF90EF90DF90CF90BF9020
:10060000AF907F906F905F904F9008954F925F9260
:100610006F927F92AF92BF92CF92DF92EF92FF9252
:100620000F931F93CF93DF93CDB7DEB728970FB605
:10063000F894DEBF0FBECDBF29013A01ED82FE82E4
:100640000F8318870E94410569837A838B839C837B
:10065000A60195016A8D7B8D8C8D9D8D0E94410533
:100660009B01AC0169817A818B819C810E94AE06DD
:1006700069837A838B839C83A3019201C801B701AC
:100680000E9441059B01AC0169817A818B819C812B
:100690000E94AE05A60195010E94420528960FB65C
:1006A000F894DEBF0FBECDBFDF91CF911F910F91A8
:1006B000FF90EF90DF90CF90BF90AF907F906F90C2
:1006C0005F904F900895A0E0B0E09C01AD012051F3
:1006D000314041095109A4E6B0E00E94140520EA26
:1006E00035E040E050E00E94E604C9010895BC01F5
:1006F00080E090E00E94200620E030E048E853E4EB
:100700000E94410520E030E044EB54E40E94AE0535
:1007100020E030E040E05FE30E9441050895109240
:10072000B9008CE08093B800089594EA9093BC00DF
:100730009091BC0097FFFCCF9091B900987F9830C2
:1007400021F0903111F081E008958093BB0084E89E
:100750008093BC008091BC0087FFFCCF8091B900E2
:10076000887F883111F0803471F780E0089524EAA1
:1007700034E844E92093BC009091BC0097FFFCCF83
:100780009091B900987F983011F0903199F780934B
:10079000BB003093BC009091BC0097FFFCCF9091C0
:1007A000B900987F903219F0983509F00895409378
:1007B000BC009091BC0094FDFCCFDCCF0C94950361
:1007C00084E98093BC008091BC0084FDFCCF089537
:1007D0008093BB0084E88093BC008091BC0087FFBD
:1007E000FCCF9091B900987F81E0983209F008958C
:1007F00080E0089584EC8093BC008091BC0087FF6A
:10080000FCCF8091BB00089584E88093BC00809168
:10081000BC0087FFFCCF8091BB00089584B1876046
:1008200084B98CB581658CBD289A08958EBD0DB4B0
:1008300007FEFDCF089528980895289A0895E1ECC1
:10084000F0E0808188698083E2ECF0E0808186605E
:10085000808383E38093C4001092C5000895909133
:10086000C00095FFFCCF8093C6000895FC01208155
:10087000222351F031969091C00095FFFCCF209338
:10088000C60021912111F7CF089580E480937C0068
:1008900086E880937A008DB18F608DB984B1806CC9
:1008A00084B985B1806C85B9719A8FEF809302020B
:1008B00080930302809304028093050280930602D2
:1008C00080930702719885B18F7385B92FEF81EE00
:1008D00094E0215080409040E1F700C00000719A00
:1008E00085B1806C85B92FEF83ED90E32150804076
:1008F0009040E1F700C00000719885B18F7385B911
:100900002FEF81EE94E0215080409040E1F700C04D
:100910000000719A85B1806C85B980917C00887FD8
:10092000856080937C0080917A00806480937A0057
:1009300080917A0086FDFCCF40917800509179003B
:100940009A01ABEABAEA0E940505969587959C0143
:10095000220F331F820F931F48175907E9F4809124
:100960000002909101028035934CB8F2719885B1E4
:100970008F7385B98FEF91EE24E081509040204035
:10098000E1F700C00000719A85B1806C85B91092C2
:10099000010210920002C1CF8091000290910102E9
:1009A00001969093010280930002DDCFDB018F93CB
:1009B0009F930E941405BF91AF91A29F800D911D3E
:1009C000A39F900DB29F900D11240895052E97FBC3
:1009D0001EF400940E94FD0457FD07D00E941F05DD
:1009E00007FC03D04EF40C94FD04509540953095CF
:1009F00021953F4F4F4F5F4F08959095809570958B
:100A000061957F4F8F4F9F4F0895A29FB001B39F75
:100A1000C001A39F700D811D1124911DB29F700D07
:100A2000811D1124911D08950E940505A59F900D1B
:100A3000B49F900DA49F800D911D11240895A1E2F3
:100A40001A2EAA1BBB1BFD010DC0AA1FBB1FEE1F48
:100A5000FF1FA217B307E407F50720F0A21BB30B93
:100A6000E40BF50B661F771F881F991F1A9469F70F
:100A700060957095809590959B01AC01BD01CF016B
:100A800008955058BB27AA270E9459050C94740654
:100A90000E94660638F00E946D0620F039F49F3FF0
:100AA00019F426F40C9463060EF4E095E7FB0C941D
:100AB0005D06E92F0E94850658F3BA17620773078F
:100AC0008407950720F079F4A6F50C94A7060EF498
:100AD000E0950B2EBA2FA02D0B01B90190010C014E
:100AE000CA01A0011124FF27591B99F0593F50F466
:100AF000503E68F11A16F040A22F232F342F4427BE
:100B0000585FF3CF469537952795A795F0405395B5
:100B1000C9F77EF41F16BA0B620B730B840BBAF085
:100B20009150A1F0FF0FBB1F661F771F881FC2F7F0
:100B30000EC0BA0F621F731F841F48F48795779504
:100B40006795B795F7959E3F08F0B0CF9395880FBE
:100B500008F09927EE0F9795879508950E94C20592
:100B60000C9474060E946D0658F00E94660640F0D0
:100B700029F45F3F29F00C945D0651110C94A806EE
:100B80000C9463060E94850668F39923B1F35523FC
:100B900091F3951B550BBB27AA2762177307840790
:100BA00038F09F5F5F4F220F331F441FAA1FA9F326
:100BB00035D00E2E3AF0E0E832D091505040E69514
:100BC000001CCAF72BD0FE2F29D0660F771F881F75
:100BD000BB1F261737074807AB07B0E809F0BB0B68
:100BE000802DBF01FF2793585F4F3AF09E3F51057C
:100BF00078F00C945D060C94A8065F3FE4F3983EF1
:100C0000D4F3869577956795B795F7959F5FC9F764
:100C1000880F911D9695879597F90895E1E0660FE5
:100C2000771F881FBB1F621773078407BA0720F05E
:100C3000621B730B840BBA0BEE1F88F7E0950895C7
:100C4000E89409C097FB3EF4909580957095619566
:100C50007F4F8F4F9F4F9923A9F0F92F96E9BB271C
:100C60009395F695879577956795B795F111F8CF98
:100C7000FAF4BB0F11F460FF1BC06F5F7F4F8F4F03
:100C80009F4F16C0882311F096E911C0772321F0F9
:100C90009EE8872F762F05C0662371F096E8862F91
:100CA00070E060E02AF09A95660F771F881FDAF7E8
:100CB000880F9695879597F9089597F99F6780E82B
:100CC00070E060E008959FEF80EC089500240A949E
:100CD0001616170618060906089500240A94121617
:100CE0001306140605060895092E0394000C11F44A
:100CF000882352F0BB0F40F4BF2B11F460FF04C0F7
:100D00006F5F7F4F8F4F9F4F089557FD9058440F4F
:100D1000551F59F05F3F71F04795880F97FB991F5A
:100D200061F09F3F79F08795089512161306140617
:100D3000551FF2CF4695F1DF08C0161617061806A4
:100D4000991FF1CF86957105610508940895E8947F
:100D5000BB2766277727CB0197F908950E94C10624
:100D60000C9474060E94660638F00E946D0620F00E
:100D7000952311F00C945D060C94630611240C94D9
:100D8000A8060E94850670F3959FC1F3950F50E069
:100D9000551F629FF001729FBB27F00DB11D639F2D
:100DA000AA27F00DB11DAA1F649F6627B00DA11DD3
:100DB000661F829F2227B00DA11D621F739FB00D79
:100DC000A11D621F839FA00D611D221F749F3327E9
:100DD000A00D611D231F849F600D211D822F762F82
:100DE0006A2F11249F5750409AF0F1F088234AF05F
:100DF000EE0FFF1FBB1F661F771F881F91505040CB
:100E0000A9F79E3F510580F00C945D060C94A8064E
:100E10005F3FE4F3983ED4F3869577956795B79551
:100E2000F795E7959F5FC1F7FE2B880F911D96956B
:0A0E3000879597F90895F894FFCF15
:00000001FF
