:100000000C9472000C9493000C9493000C94930045
:100010000C9493000C9493000C9493000C94930014
:100020000C9493000C94A1000C9493000C949300F6
:100030000C9493000C9493000C9493000C949300F4
:100040000C9493000C9493000C9493000C949300E4
:100050000C9493000C9493000C9493000C949300D4
:100060000C9493000C9493000C9493000C949300C4
:100070000C9493000C9493000C9493000C949300B4
:100080000C9493000C9493000C9493000C949300A4
:100090000C9493000C9493000C9493000C94930094
:1000A0000C9493000C9493000C9493000C94930084
:1000B0000C9493000C9493000C9493000C94930074
:1000C0000C9493000C9493000C9493000C948A026B
:1000D0000C9493000C9493000C9493000C94930054
:1000E0000C94930011241FBECFEFD1E2DEBFCDBF31
:1000F00000E00CBF12E0A0E0B2E0E4ECF0E200E0CF
:100100000BBF02C007900D92AC30B107D9F722E0C7
:10011000ACE0B2E001C01D92AF3FB207E1F70E9430
:10012000880C0C9460100C9400006DE772E08AE873
:1001300092E00E9459056DE772E08EE092E00C9427
:1001400059051F920F920FB60F9211240BB60F9202
:100150002F933F934F935F936F937F938F939F93CF
:10016000AF93BF93EF93FF93F8941C9B1DC01D9911
:1001700007C06DE772E081E00E94F7030E949500DE
:100180007894FF91EF91BF91AF919F918F917F9163
:100190006F915F914F913F912F910F900BBE0F90F8
:1001A0000FBE0F901F9018956DE772E080E00E94DF
:1001B000F7030E949500DBCF8AE892E00C94FF04DD
:1001C0008AE892E00C94A709CF92DF92EF92FF9217
:1001D0000F931F93EAE8F2E082E491E09183808339
:1001E0008CE9C82EDD24DA94ED2CFD2CC2AED3AE02
:1001F000E4AEF5AE94EB958F168E178E10A211A279
:1002000012A213A214A281E08093D5021092CE0212
:100210001092C8021092C9021092CA021092CB0228
:100220008093CF0201E010E020E030E00093D6029E
:100230001093D7022093D8023093D90243E050E0C4
:1002400060E070E04093DA025093DB026093DC02DE
:100250007093DD02EEE0F2E0A4E4B1E0B183A083AC
:10026000C2AED3AEE4AEF5AE958F168E178E10A249
:1002700011A212A213A214A280935302109252024E
:100280008093590210924C0210924D0210924E022D
:1002900010924F0200935A0210935B0220935C026B
:1002A00030935D0240935E0250935F026093600260
:1002B000709361021F910F91FF90EF90DF90CF90AC
:1002C00008955B9A2FEF83ED90E32150804090409A
:1002D000E1F700C000005B982FEF83ED90E3215021
:1002E00080409040E1F700C00000EBCF1092FE028A
:1002F000E4EDF0E089E090E0918380839183808356
:10030000E1EDF0E0808180698083E2EDF0E08081C2
:10031000886280830895FC012281AEEDB2E0818184
:100320009281977011969C938E93838130E2839F84
:10033000C0011124269526952695822B9770139639
:100340009C938E9312972381229526952695237050
:10035000848190E0880F991F880F991F822B258137
:1003600030E0322F2227330F330F822B932B9770DD
:1003700015969C938E93149725812695868130E857
:10038000839FC0011124822B977017969C938E93A4
:100390001697268122952F70878130E1839FC001B7
:1003A0001124822B977019969C938E93189727810E
:1003B000221F2227221F808590E0880F991F822B01
:1003C000218530E0322F2227330F822B932B977019
:1003D0001B969C938E931A97218526952695828548
:1003E00030E4839FC0011124822B97701D969C934B
:1003F0008E931C972285229526952770838590E001
:10040000880F991F880F991F880F991F822B1F969D
:100410009C938E931E9784859585977051969C9397
:100420008E9350972585269526952695868530E2CC
:10043000839FC0011124822B977053969C938E93B7
:10044000529726852295269526952370878590E0DC
:10045000880F991F880F991F822B208930E0322F37
:100460002227330F330F822B932B977055969C9333
:100470008E93549720892695818930E8839FC00107
:100480001124822B977057969C938E9356972189AF
:1004900022952F70828930E1839FC0011124822B25
:1004A000977059969C938E9358972289221F2227E2
:1004B000221F838990E0880F991F822B248930E0C6
:1004C000322F2227330F822B932B97705B969C93AE
:1004D0008E935A97248926952695858930E4839FA3
:1004E000C0011124822B97705D969C938E935C972C
:1004F0002589229526952770868990E0880F991F77
:10050000880F991F880F991F822B5F969C938E935B
:100510005E9708951F920F920FB60F9211240BB69B
:100520000F922F933F934F935F936F937F938F938C
:100530009F93AF93BF93EF93FF939091D600E09179
:10054000FE0281E08E0F8093FE02F0E0EC59FD4F39
:100550009083893199F0FF91EF91BF91AF919F9175
:100560008F917F916F915F914F913F912F910F905C
:100570000BBE0F900FBE0F901F9018951092FE02A9
:10058000809164028F3039F780917C028111E3CF32
:1005900084E692E00E948B01109263021092620244
:1005A00010920D02D8CF809164028F3009F0089527
:1005B00080917C028111FBCF84E692E00E948B0146
:1005C000109263021092620210920D020895CF936E
:1005D000C82F0E945E0C85E00E94590C8FE00E949B
:1005E000590C80EE0E94590C8C2F8295880F807ECA
:1005F0000E94590CCF910C94600CCF93C82F0E948D
:100600005E0C83E00E94590C8C2F0E94590C80E0F4
:100610000E94590C0E94600C8EB5CF910895CF9323
:10062000DF93D82FC62F0E945E0C82E00E94590CE7
:100630008D2F0E94590C8C2F0E94590CDF91CF9165
:100640000C94600C84E00E94E7028EE00E94FD02A0
:1006500087FFFBCF60E08AE20E940F0361E989E235
:100660000E940F0361E088E20E940F0364E680E6C7
:100670000E940F0360E680E70E940F036FE08CE0AA
:100680000E940F030895CF93C62F0E94FD0291E0B0
:100690008C1390E0892FCF9108958AE20E94FD0289
:1006A000882319F090E0892F089589E20E94FD02C5
:1006B0008139C1F788E20E94FD0291E0813091F713
:1006C000F2CFEF92FF920F931F93CF93DF93C82F38
:1006D0007B010E945E0C8C2F80640E94590CF701F4
:1006E00080819181A281B38123E0B695A7959795EA
:1006F00087952A95D1F70E94590CF7018081829540
:10070000880F807E0E94590C80E00E94590C80E086
:100710000E94590CF7018481182F16951F7080FDD7
:100720001CC0812F0E94590C112379F0E7012596F6
:100730001150012F10E00A5F1F4F0E0D1F1D8991F0
:100740000E94590CC017D107D1F7DF91CF911F91AB
:100750000F91FF90EF900C94600C812F80640E94A9
:10076000590CDF91CF911F910F91FF90EF900C9456
:10077000600CCF93882351F0C82FC0680E945E0C94
:100780008C2F0E94590CCF910C94600CC1E80E94F0
:100790005E0C8C2F0E94590CCF910C94600CFF9230
:1007A0000F931F93CF93DF93C82FF62E072F142F8D
:1007B0000E945E0C83E00E94590C8C2F0E94590C01
:1007C000112371F0CF2DD02FCE01810F911D8C01FF
:1007D00080E00E94590C8EB58993C017D107C1F7EC
:1007E000DF91CF911F910F91FF900C94600C0F93AC
:1007F0001F93CF93DF9300D01F921F92CDB7DEB728
:100800008B01882359F1813009F447C0898190E038
:10081000880F991F880F991F880F991F2A81229589
:1008200026952770822B092E000CAA0BBB0BF80112
:1008300080839183A283B3838D818F70982F990FCA
:100840008481817E892B84830F900F900F900F906D
:100850000F90DF91CF911F910F91089545E0BE0158
:100860006F5F7F4F81E60E94CF0348E0B8016B5F66
:100870007F4F86E60E94CF030E945E0C85E00E94B7
:10088000590C8CE20E94590C81E00E94590C80E0C6
:100890000E94590C0E94600CB9CF45E0BE016F5F09
:1008A0007F4F81E70E94CF0348E0B8016B5F7F4F25
:1008B00086E70E94CF030E945E0C85E00E94590CDF
:1008C0008CE20E94590C82E00E94590C80E00E9448
:1008D000590C0E94600C9ACF0F931F93CF93DF9314
:1008E0008C0180E30E94FD02C82F80E40E94FD027B
:1008F000D82FD87080E50E94FD028870C3FF0EC01B
:10090000DD2309F451C0882359F18BB184688BB978
:1009100081E0DF91CF911F910F910895B80180E0A0
:100920000E9461030E945E0C81E80E94590C0E94A3
:10093000600C80E00E94FD02C82FC07480E00E941D
:10094000FD02D82FD07280E00E94FD028071CC237E
:1009500011F15D9A83E0DF91CF911F910F9108957E
:10096000B80184E00E9461030E945E0C84E80E944A
:10097000590C0E94600C84E00E94FD02C82FC074D4
:1009800084E00E94FD02D82FD07284E00E94FD0214
:100990008071C111DECFDD2309F15E9A84E0DF9121
:1009A000CF911F910F910895B80182E00E946103D9
:1009B0000E945E0C82E80E94590C0E94600C82E04A
:1009C0000E94FD02C82FC07482E00E94FD02D82F51
:1009D000D07282E00E94FD028071B9CF882319F0A5
:1009E0005F9A85E096CF80E094CFCF93C62F0E9488
:1009F000FD028C23CF9108958CE10C94FD02CF93DE
:100A0000DF93CDB7DEB72D970FB6F894DEBF0FBEDC
:100A1000CDBFFC0180819181A0E0B0E089839A8301
:100A2000AB83BC838D81817E80618E7F8D838AE9DB
:100A30008E83CE0101960E946C048111FACF8CE95D
:100A40008E83CE0101960E946C048111FACF2D96FF
:100A50000FB6F894DEBF0FBECDBFDF91CF910895E2
:100A6000CF93DF93CDB7DEB72D970FB6F894DEBFE7
:100A70000FBECDBFFC0180819181A0E0B0E08983F1
:100A80009A83AB83BC838D81817E80618E7F8D83D1
:100A900082E98E83CE0101960E946C048111FACF07
:100AA0002D960FB6F894DEBF0FBECDBFDF91CF916C
:100AB00008952F923F924F925F926F927F928F9202
:100AC0009F92AF92BF92CF92DF92EF92FF920F93DD
:100AD0001F93CF93DF93EC01FB0188819981A0E004
:100AE000B0E04081518162817381481759076A07DC
:100AF0007B0799F0DF91CF911F910F91FF90EF90BD
:100B0000DF90CF90BF90AF909F908F907F906F902D
:100B10005F904F903F902F90089585818A3909F416
:100B20006BC090F08C3909F470C08D3919F786814B
:100B30008BA787819085092E000CAA0BBB0B8FA772
:100B400098ABA9ABBAABD6CF8239A1F6DE01AC5BCC
:100B5000BF4F8C9186809780A084B184228530E03D
:100B600040E050E060E070E0882309F469C080E074
:100B700090E000E20E94E00D762E172FB82FA92FEB
:100B8000482C422A592C532A6A2C642ADB2CD52A59
:100B9000238530E040E050E060E070E080E090E0ED
:100BA00008E20E94E00DA42CA22AB52CB32AC62C80
:100BB000C42AD52AE72CE62AF12EF72AB82BA92B2E
:100BC000248530E040E050E060E070E080E090E0BC
:100BD00000E30E94E00D2A293B294C295D296E295A
:100BE0007F298B2B9A2B2D873E874F87588B698BBC
:100BF0007A8B8B8B9C8B7ECF86818BA78085918512
:100C00009DA78CA784858EA775CF86818BA78781AA
:100C10009085092E000CAA0BBB0B8FA798ABA9AB34
:100C2000BAAB81859285092E000CAA0BBB0B8BAB4E
:100C30009CABADABBEAB838594859C838B835ACF35
:100C400090E000E20E94E00D562E672E782E192FBC
:100C5000282C222A392C332A4A2C442ACB2CC52A68
:100C6000238530E040E050E060E070E080E090E01C
:100C700008E20E94E00D922C922AA32CA32AB42C05
:100C8000B42AC52AD52CD62AE62CE72AF72CF82A2E
:100C9000192B248530E040E050E060E070E080E017
:100CA00090E000E30E94E00D29293A294B295C29B4
:100CB0006D297E298F29912B2D8B3E8B4F8B588F41
:100CC000698F7A8F8B8F9C8F81E08C9313CF0F93DA
:100CD0001F93CF93DF93CDB7DEB72D970FB6F89460
:100CE000DEBF0FBECDBF8C01FC0180819181A0E0F1
:100CF000B0E089839A83AB83BC838D81817E8061E0
:100D00008E7F8D8380E88E83CE0101960E946C04D5
:100D10008111FACFFFE926E881E0F15020408040C0
:100D2000E1F700C00000F80180819181A0E0B0E00F
:100D300089839A83AB83BC838D81817E80618E7F22
:100D40008D8386E78E83CE0101960E946C0481110B
:100D5000FACFFFE926E881E0F15020408040E1F73A
:100D600000C00000F80180819181A0E0B0E089839B
:100D70009A83AB83BC838D81817E80618E7F8D83DE
:100D800088E88E83CE0101960E946C048111FACF0F
:100D9000FFE926E881E0F15020408040E1F700C003
:100DA00000002D960FB6F894DEBF0FBECDBFDF91C9
:100DB000CF911F910F910895CF93DF93CDB7DEB7F9
:100DC0002D970FB6F894DEBF0FBECDBFFC0180811A
:100DD0009181A0E0B0E089839A83AB83BC838D814D
:100DE000817E80618E7F8D8381EA8E831F8218864B
:100DF00019868EE38A871B861C861D86CE01019686
:100E00000E946C048111FACF2D960FB6F894DEBFC4
:100E10000FBECDBFDF91CF910895CF93DF93CDB7B4
:100E2000DEB761970FB6F894DEBF0FBECDBFFC01F1
:100E30009A01AB0123AB34AB65AB56ABA4E6B0E093
:100E40000E946C0D6E877F87888B998B8081918142
:100E5000A0E0B0E089839A83AB83BC838D81817EDF
:100E600080618E7F8D8382EA8E836A877B87888903
:100E70008C8789898D87CE0101960E946C0481112F
:100E8000FACF61960FB6F894DEBF0FBECDBFDF91EB
:100E9000CF910895FC01EA5BFF4F1082FC0142AD47
:100EA00053AD64AD75AD0C940D0770E0FC01EE5BC5
:100EB000FF4F008002C0759567950A94E2F760FDC8
:100EC0000FC03496208121110BC0DC01DE964D91BC
:100ED0005D916D917C911397452B462B472B09F023
:100EE000089541E050E060E070E04D935D936D93B4
:100EF0007C9313971082FC0142AD53AD64AD75AD88
:100F00000C940D07CF93DF93CDB7DEB72D970FB6B7
:100F1000F894DEBF0FBECDBFFC0180819181A0E0BF
:100F2000B0E089839A83AB83BC838D81817E8061AD
:100F30008E7F8D8381E88E831F82188619861A869C
:100F40001B861C861D86CE0101960E946C048111B1
:100F5000FACF2D960FB6F894DEBF0FBECDBFDF914E
:100F6000CF9108952F923F924F925F926F927F920E
:100F70008F929F92AF92BF92CF92DF92EF92FF92A9
:100F80000F931F93CF93DF93CDB7DEB7A5970FB61F
:100F9000F894DEBF0FBECDBF1C017B8B6A8B29018D
:100FA0003A01DC015596BC91BC8BFC01F689FD8BA6
:100FB000DC015796BC91BE8BFC01F08DFF8BDC01F0
:100FC0005996BC91B88FFC01F28DF98FDC015B96CC
:100FD000BC91BA8FFC01F48DFB8F2C893D894E8921
:100FE0005F89688D798D8B2F9F2FA0E00E94140E52
:100FF00009F401C1F101EC5BFF4F8081882309F402
:10100000FAC077FC85C1F101F58DFC8FD1015E96A8
:10101000BC91BD8FF101878C90A0F1A1D101929676
:10102000EC9192979396BC91BAA3D1019496BC91FE
:10103000BBA3BC8D8D8D8E8F8CA29DA2EF2EFE2E1C
:101040000AA11BA12B2F382FA4016F2F7E2FC801BF
:10105000A0E00E94140E0CF4ECC09201A301630105
:101060005201DD0CAA08BA2C65016A2D7A2D8A2D51
:101070009A2DAB2EBE8CCCA0DDA00E940B0E11F0E1
:101080000CF0D2C0D10119964D925D926D927C9276
:101090001C972C8D3D8DA4016F2F7E2F8AA19BA1C3
:1010A000A0E00E94140E09F00CF4CCC0D101AB5B9F
:1010B000BF4F8C918CA3A4E6B0E0A30192010E94E3
:1010C0006C0D9B01AC019CA1A92FB0E00E946C0D9E
:1010D0004C885D886E887F88460E571E681E791E74
:1010E0004E865F86688A798AD301C201BB0F880B5E
:1010F000982FDC018E8F9F8FA8A3B9A32C8D3D8DD7
:10110000A4016F2F7E2F8AA19BA102E00E94E00D17
:101110002C8F3D8F4A01B62FA72FF82FE92F0E9461
:10112000E00D59016A017B018C012C8D3D8DA401DC
:101130006B2F7A2F8F2F9E2F0E94F90D2C8F3D8FB2
:101140004A01B62FA72FF82FE92F02E00E94E00DE9
:1011500059016A017B018C012C8D3D8DA4016B2FFF
:101160007A2F8F2F9E2F0E94F90DACA0B12CC12C8D
:10117000D12CE12CF12C00E010E00E94770DAC881E
:10118000BD88CE88DF88E88CF98C0A8D1B8D0E9483
:10119000F90D59016A017B018C019201A3016E8D49
:1011A000762F862F962F0E940B0E09F024F5D10181
:1011B0008D919C91A0E0B0E089839A83AB83BC833E
:1011C0008D81817E80618E7F8D8384EA8E838A8982
:1011D00088878B8989878E858A878F858B87888981
:1011E0008C8789898D878E010F5F1F4FC8010E94F0
:1011F0006C048111FBCFA5960FB6F894DEBF0FBE2D
:10120000CDBFDF91CF911F910F91FF90EF90DF90B5
:10121000CF90BF90AF909F908F907F906F905F9096
:101220004F903F902F9008954B2E5B2C6C2C7D2C73
:1012300029CF0E94D00DB22F3E8F4CA35DA37B011E
:101240008C010BCF2C8D3D8DA4016F2F7E2F8AA199
:101250009BA1A0E00E94140E71F28C899D89AE8939
:10126000BF8984199509A609B7092C013D018E870C
:101270009F87A88BB98BBB0F880B982FDC018E8FB3
:101280009F8FA8A3B9A32C893D894E895F89688D5A
:10129000798D8A8D9B8DAC8CBD8C6401EF2EFE2EDA
:1012A0000AA11BA10E94020E59016A017B018C0157
:1012B0009201A3016E8D762F862F962F0E940B0E22
:1012C00011F00CF098CFD1018D919C91A0E0B0E08D
:1012D00089839A83AB83BC838D81817E80618E7F7D
:1012E0008D8384EA8E838A8988878B8989878E8516
:1012F0008A878F858B8788898C8789898D878E01DE
:101300000F5F1F4FC8010E946C048111FBCF73CF88
:10131000D1015D96BC91BC8FF101F68DFD8FD1019D
:101320005F968C905F9790969C9090979196FC9189
:1013300091979296EC9192979396BC91BAA3D10112
:101340009496BC91BBA3412C512C32019BCE4F9261
:101350005F926F927F928F929F92AF92BF92CF9245
:10136000DF92EF92FF920F931F93CF93DF93EC01E5
:101370004C0124E4820E911CF4018081882309F43D
:1013800087C06FA578A989A99AA91F921F921F9259
:10139000B1E27B2E7F921FEDA12EBB24BA94CB2C01
:1013A000DB2CE12C18E0F12E00E010E020E038EF1B
:1013B0004FEF5FEF0E94070B4E01F0E58F0E911C7F
:1013C0000F900F900F900F90F401008111812281F6
:1013D000338106171707280739070CF440C06FA59B
:1013E00078A989A99AA91F921F921F927F922FED27
:1013F000A22EBB24BA94CB2CDB2CE12C18E0F12ECE
:1014000000E010E020E038EF4FEF5FEF0E94070BA5
:10141000F401408051806280738070946094509495
:101420004094411C511C611C711C0F900F900F9037
:101430000F9064157505860597058CF0DF91CF91A7
:101440001F910F91FF90EF90DF90CF90BF90AF90E2
:101450009F908F907F906F905F904F900895CE01F6
:101460000E94820740E050E0BA01CE01DF91CF91A7
:101470001F910F91FF90EF90DF90CF90BF90AF90B2
:101480009F908F907F906F905F904F900C940D077E
:101490006FA578A989A99AA91F921F921F92E1E2CC
:1014A0005E2E5F92FFEDAF2EBB24BA94CB2CDB2CCB
:1014B000E12C18E0F12E00E010E020E038EF4FEFD3
:1014C0005FEF0E94070B3E01FCE46F0E711C0F9052
:1014D0000F900F900F90F3010081118122813381D1
:1014E0000617170728073907ACF16FA578A989A94E
:1014F0009AA91F921F921F925F924FEDA42EBB24B8
:10150000BA94CB2CDB2CE12C18E0F12E00E010E09B
:1015100020E038EF4FEF5FEF0E94070BF3014080B0
:101520005180628073807094609450944094411C08
:10153000511C611C711C0F900F900F900F9064153F
:1015400075058605970534F0F4018081882309F438
:1015500075CF17CFCE010E94820740E050E0BA015C
:10156000CE010E940D07CE01DF91CF911F910F9107
:10157000FF90EF90DF90CF90BF90AF909F908F90B3
:101580007F906F905F904F900C9430058093BA00DD
:101590001092B9001092B80085E48093BC0081E0FD
:1015A000089584ED8093BC008091BC0087FDFCCF42
:1015B00084E48093BC0008958093BB0084EC809306
:1015C000BC008091BC0087FFFCCF089584EC809321
:1015D000BC008091BC0087FFFCCF8091BB000895C8
:1015E00084E88093BC008091BC0087FFFCCF809191
:1015F000BB000895FC019091BC0097FD02C080E003
:1016000008959091B900987F908381E008954F925A
:101610005F926F927F92AF92BF92CF92DF92EF92E2
:10162000FF920F931F93CF93DF93CDB7DEB72901BE
:101630003A019B01AC0124193509460957098A89E9
:101640009B89AC89BD89BC01CD016A197B098C09D4
:101650009D090E943D0DA8019701241935094609ED
:1016600057090E944D0DCA01B9016A0D7B1D8C1DE1
:101670009D1DDF91CF911F910F91FF90EF90DF9013
:10168000CF90BF90AF907F906F905F904F900895F4
:101690004F925F926F927F92AF92BF92CF92DF9202
:1016A000EF92FF920F931F93CF93DF93CDB7DEB7E7
:1016B00028970FB6F894DEBF0FBECDBF29013A01BF
:1016C000ED82FE820F8318870E94510E69837A8310
:1016D0008B839C83A60195016A8D7B8D8C8D9D8D5E
:1016E0000E94510E9B01AC0169817A818B819C81A2
:1016F0000E94BE0F69837A838B839C83A30192012E
:10170000C801B7010E94510E9B01AC0169817A8129
:101710008B819C810E94BE0EA60195010E94520EF3
:1017200028960FB6F894DEBF0FBECDBFDF91CF91E4
:101730001F910F91FF90EF90DF90CF90BF90AF90EF
:101740007F906F905F904F900895A0E0B0E09C0173
:10175000AD012051314041095109A4E6B0E00E9499
:101760006C0D20EA35E040E050E00E944D0DC901CB
:101770000895BC0180E090E00E94300F20E030E04E
:1017800048E853E40E94510E20E030E044EB54E47A
:101790000E94BE0E20E030E040E05FE30E94510E68
:1017A00008951092B9008CE08093B800089594EAEF
:1017B0009093BC009091BC0097FFFCCF9091B90032
:1017C000987F983021F0903111F081E00895809356
:1017D000BB0084E88093BC008091BC0087FFFCCFF5
:1017E0008091B900887F883111F0803471F780E0F2
:1017F000089524EA34E844E92093BC009091BC00A9
:1018000097FFFCCF9091B900987F983011F09031FC
:1018100099F78093BB003093BC009091BC0097FF78
:10182000FCCF9091B900987F903219F0983509F06B
:1018300008954093BC009091BC0094FDFCCFDCCF98
:101840000C94D70B84E98093BC008091BC0084FD8C
:10185000FCCF08958093BB0084E88093BC00809106
:10186000BC0087FFFCCF9091B900987F81E098324F
:1018700009F0089580E0089584EC8093BC00809185
:10188000BC0087FFFCCF8091BB00089584E8809363
:10189000BC008091BC0087FFFCCF8091BB00089505
:1018A00084B1876084B980E58CBD81E08DBD289AC4
:1018B00008958EBD0DB407FEFDCF089528980895B4
:1018C000289A0895E1ECF0E0808188698083E2EC59
:1018D000F0E080818660808383E38093C40010926F
:1018E000C50008959091C00095FFFCCF8093C6007D
:1018F0000895FC012081222351F031969091C0007F
:1019000095FFFCCF2093C60021912111F7CF0895B8
:10191000CF93DF93CDB7DEB728970FB6F894DEBF2D
:101920000FBECDBF81E080930D02809101018064E4
:10193000809301018AB18C6F8AB90E94500C80910A
:1019400002018064809302012FEF83ED90E3215028
:1019500080409040E1F700C00000809102018F7B41
:10196000809302012FEF83ED90E32150804090405F
:10197000E1F700C0000080910201806480930201C1
:101980002FEF83ED90E3215080409040E1F700C0BD
:10199000000040E452E46FE070E080E10E94220326
:1019A0000E944D03882309F466C080E00E94E7028C
:1019B0008EE00E94FD028111FBCF10926302109213
:1019C00062020E9476010E94620C2FEF83ED90E389
:1019D000215080409040E1F700C0000080916B00F2
:1019E000806380936B0080916800816080936800C1
:1019F00078940E94E4008AE892E00E9467062FEF44
:101A000081EE94E0215080409040E1F700C000005A
:101A10008EE092E00E9467062FEF81EE94E0215065
:101A200080409040E1F700C000008AE892E00E9408
:101A30004A078AE892E00E94FF048AE892E00E9446
:101A4000A7090E94FC044AE0BE016F5F7F4F90E04F
:101A50000E942B1082E092E00E94790CCE01019648
:101A60000E94790C88E092E00E94790C1092630247
:101A700010926202DECF0E946101DB018F939F937F
:101A80000E946C0DBF91AF91A29F800D911DA39FED
:101A9000900DB29F900D11240895052E97FB1EF412
:101AA00000940E94640D57FD07D00E94200E07FC91
:101AB00003D04EF40C94640D5095409530952195CB
:101AC0003F4F4F4F5F4F089590958095709561956A
:101AD0007F4F8F4F9F4F08950E94420EA59F900DFC
:101AE000B49F900DA49F800D911D11240895DF9344
:101AF000CF931F930F939A9DF02D219FF00D8B9DF7
:101B0000F00D8A9DE02DF10D039FF00D029FE00D79
:101B1000F11D4E9DE00DF11D5E9DF00D4F9DF00DF0
:101B20007F936F93BF92AF925F934F93D5010E94C3
:101B3000420E8B01AC01D7010E94420EEB01E80F6F
:101B4000F91FD6010E94C70D2F913F91D6010E9427
:101B5000420EC60FD71FE81FF91FAF91BF910E9419
:101B6000C70D2F913F910E94420EC60FD71FE81F4D
:101B7000F91FD6010E94420EE60FF71F9801BE0121
:101B8000CF0111240F911F91CF91DF9108950E94F1
:101B9000420E460F571FC81FD91F08F431960895EB
:101BA00060957095809590953095409550952195CC
:101BB0003F4F4F4F5F4F6F4F7F4F8F4F9F4F089556
:101BC0000F93083090F0982F872F762F652F542F82
:101BD000432F322F22270850F4CF220F331F441FE8
:101BE000551F661F771F881F991F0A95B2F70F911F
:101BF00008952A0D3B1D4C1D5D1D6E1D7F1D801F10
:101C0000911F08952A193B094C095D096E097F0946
:101C1000800B910B08952A153B054C055D056E055B
:101C20007F058007910708950024A7FD00942A17D7
:101C30003005400550056005700580059005089544
:101C4000A1E21A2EAA1BBB1BFD010DC0AA1FBB1FC0
:101C5000EE1FFF1FA217B307E407F50720F0A21B32
:101C6000B30BE40BF50B661F771F881F991F1A949F
:101C700069F760957095809590959B01AC01BD01C9
:101C8000CF010895A29FB001B39FC001A39F700D23
:101C9000811D1124911DB29F700D811D1124911D74
:101CA00008955058BB27AA270E94690E0C94840FF0
:101CB0000E94760F38F00E947D0F20F039F49F3F8C
:101CC00019F426F40C94730F0EF4E095E7FB0C94D2
:101CD0006D0FE92F0E94950F58F3BA17620773072B
:101CE0008407950720F079F4A6F50C94B70F0EF44D
:101CF000E0950B2EBA2FA02D0B01B90190010C011C
:101D0000CA01A0011124FF27591B99F0593F50F433
:101D1000503E68F11A16F040A22F232F342F44278B
:101D2000585FF3CF469537952795A795F040539583
:101D3000C9F77EF41F16BA0B620B730B840BBAF053
:101D40009150A1F0FF0FBB1F661F771F881FC2F7BE
:101D50000EC0BA0F621F731F841F48F487957795D2
:101D60006795B795F7959E3F08F0B0CF9395880F8C
:101D700008F09927EE0F9795879508950E94D20E47
:101D80000C94840F0E947D0F58F00E94760F40F053
:101D900029F45F3F29F00C946D0F51110C94B80F8A
:101DA0000C94730F0E94950F68F39923B1F3552398
:101DB00091F3951B550BBB27AA276217730784075E
:101DC00038F09F5F5F4F220F331F441FAA1FA9F3F4
:101DD00035D00E2E3AF0E0E832D091505040E695E2
:101DE000001CCAF72BD0FE2F29D0660F771F881F43
:101DF000BB1F261737074807AB07B0E809F0BB0B36
:101E0000802DBF01FF2793585F4F3AF09E3F510549
:101E100078F00C946D0F0C94B80F5F3FE4F3983E8C
:101E2000D4F3869577956795B795F7959F5FC9F732
:101E3000880F911D9695879597F90895E1E0660FB3
:101E4000771F881FBB1F621773078407BA0720F02C
:101E5000621B730B840BBA0BEE1F88F7E095089595
:101E6000E89409C097FB3EF4909580957095619534
:101E70007F4F8F4F9F4F9923A9F0F92F96E9BB27EA
:101E80009395F695879577956795B795F111F8CF66
:101E9000FAF4BB0F11F460FF1BC06F5F7F4F8F4FD1
:101EA0009F4F16C0882311F096E911C0772321F0C7
:101EB0009EE8872F762F05C0662371F096E8862F5F
:101EC00070E060E02AF09A95660F771F881FDAF7B6
:101ED000880F9695879597F9089597F99F6780E8F9
:101EE00070E060E008959FEF80EC089500240A946C
:101EF0001616170618060906089500240A941216E5
:101F00001306140605060895092E0394000C11F417
:101F1000882352F0BB0F40F4BF2B11F460FF04C0C4
:101F20006F5F7F4F8F4F9F4F089557FD9058440F1D
:101F3000551F59F05F3F71F04795880F97FB991F28
:101F400061F09F3F79F087950895121613061406E5
:101F5000551FF2CF4695F1DF08C016161706180672
:101F6000991FF1CF86957105610508940895E8944D
:101F7000BB2766277727CB0197F908950E94D10FD9
:101F80000C94840F0E94760F38F00E947D0F20F091
:101F9000952311F00C946D0F0C94730F11240C9475
:101FA000B80F0E94950F70F3959FC1F3950F50E005
:101FB000551F629FF001729FBB27F00DB11D639FFB
:101FC000AA27F00DB11DAA1F649F6627B00DA11DA1
:101FD000661F829F2227B00DA11D621F739FB00D47
:101FE000A11D621F839FA00D611D221F749F3327B7
:101FF000A00D611D231F849F600D211D822F762F50
:102000006A2F11249F5750409AF0F1F088234AF02C
:10201000EE0FFF1FBB1F661F771F881F9150504098
:10202000A9F79E3F510580F00C946D0F0C94B80FEA
:102030005F3FE4F3983ED4F3869577956795B7951F
:10204000F795E7959F5FC1F7FE2B880F911D969539
:10205000879597F90895BB274A3031F4992322F4E4
:10206000BDE2909581959F4F0C943710BB27FB01E3
:102070005527AA27880F991FAA1FA41710F0A41B81
:1020800083955051B9F7A05DAA3308F0A95DA193DB
:10209000009779F7B111B1931192CB010C945010C4
:1020A000DC01FC01672F71917723E1F7329704C0BF
:1020B0007C916D9370836291AE17BF07C8F308954A
:0420C000F894FFCFC2
:0C20C40001205445433A20000D0A0000A2
:00000001FF
